S01E000041546D656761333238705F535049746F416E616C6F672E737265634A
S11300000C9434000C943E000C943E000C943E007E
S11300100C943E000C943E000C943E000C943E0064
S11300200C943E000C943E000C943E000C943E0054
S11300300C943E000C943E000C943E000C943E0044
S11300400C943E000C943E000C943E000C943E0034
S11300500C943E000C943E000C943E000C943E0024
S11300600C943E000C943E0011241FBECFEFD8E048
S1130070DEBFCDBF0E9456000C9496000C94000085
S11300808EE284B98CE58CBD81E08DBD85B186603E
S113009085B908958EBD0DB407FEFDCF08958FEF89
S11300A08EBD0DB407FEFDCF8EB508950E944000AD
S11300B085B18B7F85B922E02A95F1F700C00E94B3
S11300C04F00C82F0E944F0095B1946095B992E0FB
S11300D09A95F1F700C020E2C29FE00111248695B1
S11300E086958695C82BD06385E88A95F1F700003C
S11300F085B18D7F85B992E09A95F1F700C08D2F77
S11301000E944A008C2F0E944A0085B1826085B902
S113011022E02A95F1F700C08FE798E321E08150AF
S113012090402040E1F700C00000C2CFF894FFCF18
S9030000FC
